:100000000C9434000C9451000C9451000C94510049
:100010000C9451000C9451000C9451000C9451001C
:100020000C9451000C9451000C9451000C9451000C
:100030000C9451000C9451000C94B1000C9451009C
:100040000C9451000C9451000C9451000C945100EC
:100050000C9451000C9451000C9451000C945100DC
:100060000C9451000C94510011241FBECFEFD4E02A
:10007000DEBFCDBF11E0A0E0B1E0EAE1FCE002C0EC
:1000800005900D92A031B107D9F721E0A0E1B1E0D0
:1000900001C01D92A132B207E1F70E94E0020C9468
:1000A0000B060C94000090E023C0419AE7EAF1E6C9
:1000B0003197F1F700C000004198E7EAF1E6319787
:1000C000F1F700C00000419AFFE728E331E0F1506A
:1000D00020403040E1F700C0000041984FE7E8E3DE
:1000E000F1E04150E040F040E1F700C000009F5FC8
:1000F0009813DBCF089590E00FC0419AE3EDF0E351
:100100003197F1F700C000004198E3EDF0E331973B
:10011000F1F700C000009F5F9813EFCF0895809122
:100120000F01823039F08330A1F08130C9F4809121
:10013000200111C06091190170911A0180911B0179
:1001400090911C010E94A004709311016093100112
:1001500008958091170190E0909311018093100110
:1001600008951F920F920FB60F9211242F933F9371
:100170004F935F936F937F938F939F93AF93BF93AF
:10018000EF93FF9380911001909111012AE030E0EC
:10019000B9010E94E10580509F4FFC014081809190
:1001A000100190911101B9010E94E105CB01B90143
:1001B0000E94E10580509F4FFC01808190911F01BA
:1001C000992319F0913099F40AC0589A599845B971
:1001D00080910F01833009F4406845B908C0599AED
:1001E000589890910F01933009F4806885B98091F7
:1001F0001F018F5F823019F080931F0102C010929F
:100200001F0180911E01823009F04AC080911301C4
:1002100090911401A0911501B09116010596A11DB0
:10022000B11D8093130190931401A0931501B09315
:10023000160140910A0150910B0160910C017091DF
:100240000D0184179507A607B707C8F01092130190
:10025000109214011092150110921601809117014D
:10026000882319F08550809317010E948F00809198
:100270001701811104C081E080931E015B9A809177
:1002800012018F5F80931201803851F41092120195
:100290009BB18BB1877F981302C05B9A01C05B98BA
:1002A000FF91EF91BF91AF919F918F917F916F914E
:1002B0005F914F913F912F910F900FBE0F901F9024
:1002C00018955F9912C05C9A8FE493EC0197F1F74F
:1002D00000C000005F9A9FE728E381E09150204032
:1002E0008040E1F700C000005C9808955F9B0FC05C
:1002F0005C9A8FE493EC0197F1F700C000005F98DF
:100300008FE493EC0197F1F700C000005C9808952A
:10031000CF93C0911E01C130F1F48091180160911A
:10032000200170E08823D1F080E090E00E94CC04AE
:100330009B01AC016091190170911A0180911B0120
:1003400090911C010E94340418162CF00E94610147
:100350001092180122C0CF910C94760180E090E0B9
:100360000E94CC0420E030E040E05FE30E94D00334
:100370009B01AC016091190170911A0180911B01E0
:1003800090911C010E94340418161CF0CF910C941B
:1003900061010E947601C0931801CF910895809168
:1003A0001E01811118C080911701811104C081E0E4
:1003B00080931E010BC082E080931E0110921301F6
:1003C00010921401109215011092160181E00E9402
:1003D0007B005B9A09C010921E0182E00E947B00A4
:1003E00010921D0142985B980E9488012FE58AEEC9
:1003F00090E0215080409040E1F700C00000089557
:1004000080910F01823061F0833089F08130B1F446
:1004100082E080930F018BB18F798BB95E9A0EC009
:1004200083E080930F018BB18F798BB907C081E096
:1004300080930F018BB18F798BB95D9A0E948F00E9
:100440002FE58AEE90E0215080409040E1F700C017
:100450000000089580910F01813019F08330B1F4CC
:100460000EC060912001623388F46F5F60932001B9
:10047000F999FECF80E090E00E94FD0507C08091D1
:1004800017018F3518F48B5F809317010E948F003E
:100490002FE58AEE90E0215080409040E1F700C0C7
:1004A0000000089580910F01813019F08330B1F47C
:1004B0000EC060912001662389F061506093200195
:1004C000F999FECF80E090E00E94FD0507C0809181
:1004D0001701882319F08550809317010E948F001F
:1004E0002FE58AEE90E0215080409040E1F700C077
:1004F000000008954A9B0E94CF01339B0E94000296
:10050000349B0E942A02359B0C9452020895CF928C
:10051000DF92EF92FF92CF93DF938EE080937C0087
:1005200081EE94E00197F1F700C0000080917A001D
:10053000806480937A0080917A0086FDFCCFC09120
:100540007800D091790010927C0081EE94E00197C0
:10055000F1F700C0000080917A00806480937A00F7
:1005600080917A0086FDFCCF6091780070917900CF
:10057000882777FD8095982F0E94CE046B017C011F
:10058000BE01882777FD8095982F0E94CE049B019D
:10059000AC01C701B6010E9438042DEC3CEC4CE8DC
:1005A0005FE30E947E0520E030E048EC52E40E94C8
:1005B0007E05DF91CF91FF90EF90DF90CF9008956F
:1005C0008FEF84B986EC87B98BEF8AB915B888E3C9
:1005D00088B984E28BB982E084BD95E095BD94E052
:1005E00097BD80936E0084E880937A0010927C001F
:1005F00081EE94E00197F1F700C000007894F9993A
:10060000FECF80E090E00E94F505809320018333C7
:1006100018F088E2809320010E948F000E948702D8
:100620006093190170931A0180931B0190931C0130
:10063000312C412C512C612CB12CA12C912C812CD2
:10064000F12CE12CD12CC12C09C03B2C4A2C592C6B
:10065000682C57014601FC2EED2E6801212CC0E0CC
:10066000D0E010E000E011C00E947A020E948702F0
:100670009B01AC01F8016C2F7D2F8F2F902F0E94D2
:10068000D003EB01182F092F239470900E0127142B
:1006900058F320E030E0A901D701F6016B2F7E2D41
:1006A0008F2F9C2D0E943404882309F444C020E03D
:1006B00030E0A901D501F4016B2F7A2D8F2F982DF1
:1006C0000E9434048823B9F120E030E0A901632DB1
:1006D000742D852D962D0E943404882361F1B70175
:1006E000C601272F3E2D492F5C2DF8016C2F7D2F41
:1006F0008F2F902F0E94D003D501F4012B2F3A2D7C
:100700004F2F582D0E94D003232D342D452D562DCB
:100710000E94D0031B012C0194E0799EB0011124AA
:10072000882777FD8095982F0E94CE049B01AC010D
:10073000C201B1010DC0672D70E080E090E00E9421
:10074000CE049B01AC01F8016C2F7D2F8F2F902FD1
:100750000E9438046093190170931A0180931B0161
:1007600090931C010E9488010E948F0080911E01BD
:10077000813069F470901801781209C080911D01D0
:10078000811105C083E00E94530070921D01809189
:100790001D01882311F0429A58CF429856CF5058E5
:1007A000BB27AA270ED070C161D130F066D120F0EE
:1007B00031F49F3F11F41EF456C10EF4E095E7FBAF
:1007C0004CC1E92F72D180F3BA176207730784070F
:1007D000950718F071F49EF58AC10EF4E0950B2E82
:1007E000BA2FA02D0B01B90190010C01CA01A00183
:1007F0001124FF27591B99F0593F50F4503E68F1DE
:100800001A16F040A22F232F342F4427585FF3CF1E
:10081000469537952795A795F0405395C9F77EF4EF
:100820001F16BA0B620B730B840BBAF09150A1F038
:10083000FF0FBB1F661F771F881FC2F70EC0BA0FBE
:10084000621F731F841F48F4879577956795B79546
:10085000F7959E3F08F0B3CF9395880F08F099273E
:10086000EE0F979587950895D4D008F481E0089508
:100870000CD00AC102D140F0F9D030F021F45F3F32
:1008800019F0EBC0511134C1EEC00FD198F3992388
:10089000C9F35523B1F3951B550BBB27AA27621744
:1008A0007307840738F09F5F5F4F220F331F441F89
:1008B000AA1FA9F333D00E2E3AF0E0E830D09150C1
:1008C0005040E695001CCAF729D0FE2F27D0660FAE
:1008D000771F881FBB1F261737074807AB07B0E8ED
:1008E00009F0BB0B802DBF01FF2793585F4F2AF003
:1008F0009E3F510568F0B1C0FBC05F3FECF3983EEE
:10090000DCF3869577956795B795F7959F5FC9F75F
:10091000880F911D9695879597F90895E1E0660FE8
:10092000771F881FBB1F621773078407BA0720F061
:10093000621B730B840BBA0BEE1F88F7E0950895CA
:10094000BCD088F09F5790F0B92F9927B751A0F0ED
:10095000D1F0660F771F881F991F1AF0BA95C9F753
:1009600012C0B13081F0C3D0B1E00895C0C0672F8C
:10097000782F8827B85F39F0B93FCCF38695779503
:100980006795B395D9F73EF49095809570956195EC
:100990007F4F8F4F9F4F0895E89409C097FB3EF417
:1009A00090958095709561957F4F8F4F9F4F9923BC
:1009B000A9F0F92F96E9BB279395F695879577953A
:1009C0006795B795F111F8CFFAF4BB0F11F460FFFA
:1009D0001BC06F5F7F4F8F4F9F4F16C0882311F052
:1009E00096E911C0772321F09EE8872F762F05C066
:1009F000662371F096E8862F70E060E02AF09A9501
:100A0000660F771F881FDAF7880F9695879597F9F5
:100A10000895990F0008550FAA0BE0E8FEEF16168F
:100A20001706E807F907C0F012161306E407F507E2
:100A300098F0621B730B840B950B39F40A2661F056
:100A4000232B242B252B21F408950A2609F4A140F9
:100A5000A6958FEF811D811D089597F99F6780E806
:100A600070E060E008959FEF80EC089500240A9400
:100A70001616170618060906089500240A94121679
:100A80001306140605060895092E0394000C11F4AC
:100A9000882352F0BB0F40F4BF2B11F460FF04C059
:100AA0006F5F7F4F8F4F9F4F089557FD9058440FB2
:100AB000551F59F05F3F71F04795880F97FB991FBD
:100AC00061F09F3F79F0879508951216130614067A
:100AD000551FF2CF4695F1DF08C016161706180607
:100AE000991FF1CF86957105610508940895E894E2
:100AF000BB2766277727CB0197F908950BD0C4CF82
:100B0000B5DF28F0BADF18F0952309F0A6CFABCFF8
:100B10001124EECFCADFA0F3959FD1F3950F50E0DB
:100B2000551F629FF001729FBB27F00DB11D639F9F
:100B3000AA27F00DB11DAA1F649F6627B00DA11D45
:100B4000661F829F2227B00DA11D621F739FB00DEB
:100B5000A11D621F839FA00D611D221F749F33275B
:100B6000A00D611D231F849F600D211D822F762FF4
:100B70006A2F11249F5750408AF0E1F088234AF0F1
:100B8000EE0FFF1FBB1F661F771F881F915050403D
:100B9000A9F79E3F510570F060CFAACF5F3FECF3FD
:100BA000983EDCF3869577956795B795F795E79529
:100BB0009F5FC1F7FE2B880F911D9695879597F93A
:100BC0000895AA1BBB1B51E107C0AA1FBB1FA61794
:100BD000B70710F0A61BB70B881F991F5A95A9F7E6
:100BE00080959095BC01CD010895F999FECF92BDF5
:100BF00081BDF89A992780B50895262FF999FECFDF
:100C00001FBA92BD81BD20BD0FB6F894FA9AF99A29
:0A0C10000FBE01960895F894FFCF7F
:100C1A003F065B4F666D7D277F6FB00B1C0064013A
:00000001FF
