:100000000C9434000C9451000C9451000C94510049
:100010000C9451000C9451000C9451000C9451001C
:100020000C9451000C9451000C9451000C9451000C
:100030000C9451000C9451000C94BF000C9451008E
:100040000C9451000C9451000C9451000C945100EC
:100050000C9451000C9451000C9451000C945100DC
:100060000C9451000C94510011241FBECFEFD4E02A
:10007000DEBFCDBF11E0A0E0B1E0E8ECFEE002C0E1
:1000800005900D92A031B107D9F721E0A0E1B1E0D0
:1000900001C01D92A532B207E1F70E9499030C94AA
:1000A00062070C94000090E023C0419AE7EAF1E671
:1000B0003197F1F700C000004198E7EAF1E6319787
:1000C000F1F700C00000419AFFE728E331E0F1506A
:1000D00020403040E1F700C0000041984FE7E8E3DE
:1000E000F1E04150E040F040E1F700C000009F5FC8
:1000F0009813DBCF089590E00FC0419AE3EDF0E351
:100100003197F1F700C000004198E3EDF0E331973B
:10011000F1F700C000009F5F9813EFCF0895809122
:100120000F01823061F018F4813041F505C0833051
:1001300079F0843019F514C0809124010BC06091CE
:100140001D0170911E0180911F019091200110C02E
:100150008091170190E09093110180931001089510
:100160006091190170911A0180911B0190911C01FD
:100170000E94F305709311016093100108951F927E
:100180000F920FB60F9211242F933F934F935F93CB
:100190006F937F938F939F93AF93BF93EF93FF934F
:1001A00080911001909111012AE030E0B9010E9484
:1001B000380780509F4FFC01408180911001909141
:1001C0001101B9010E943807CB01B9010E9438071B
:1001D00080509F4FFC01808190912301992319F059
:1001E000913099F40AC0589A599845B980910F01F5
:1001F000833009F4406845B908C0599A58989091DD
:100200000F01933009F4806885B9809123018F5FD5
:10021000823019F08093230102C010922301809153
:100220002201823009F04AC080911301909114019B
:10023000A0911501B09116010596A11DB11D8093E5
:10024000130190931401A0931501B09316014091EE
:100250000A0150910B0160910C0170910D018417FE
:100260009507A607B707C8F0109213011092140162
:10027000109215011092160180911701882319F030
:100280008550809317010E948F0080911701811182
:1002900004C081E0809322015B9A809112018F5FFC
:1002A00080931201803851F4109212019BB18BB1EE
:1002B000877F981302C05B9A01C05B98FF91EF9112
:1002C000BF91AF919F918F917F916F915F914F916E
:1002D0003F912F910F900FBE0F901F9018955F992F
:1002E00012C05C9A8FE493EC0197F1F700C0000014
:1002F0005F9A9FE728E381E0915020408040E1F73A
:1003000000C000005C9808955F9B0FC05C9A8FE46A
:1003100093EC0197F1F700C000005F988FE493EC35
:100320000197F1F700C000005C9808951092220137
:100330000E947B001092210142985B980895CF9310
:10034000C0912201C13009F054C080911801609120
:10035000240170E08823D1F080E090E00E941F0625
:100360009B01AC0160911D0170911E0180911F01E4
:10037000909120010E94820518162CF00E946F01B6
:100380001092180122C00E9484011FC080E090E0FA
:100390000E941F0620E030E040E05FE30E941E055F
:1003A0009B01AC0160911D0170911E0180911F01A4
:1003B000909120010E94820518161CF00E946F0186
:1003C00004C00E948401C093180120E030E040EA9C
:1003D00052E46091190170911A0180911B01909172
:1003E0001C010E94D10618163CF485E0CF910C94B4
:1003F0009601CF910C948401CF91089580912201B0
:10040000811118C080911701811104C081E080938F
:1004100022010BC082E080932201109213011092FE
:100420001401109215011092160181E00E947B00C8
:100430005B9A03C082E00E9496010E949F012FE513
:100440008AEE90E0215080409040E1F700C000002B
:10045000089580910F01823061F0833089F08130FE
:10046000B1F482E080930F018BB18F798BB95E9AE2
:100470000EC083E080930F018BB18F798BB907C0D9
:1004800081E080930F018BB18F798BB95D9A0E94C7
:100490008F002FE58AEE90E0215080409040E1F7F8
:1004A00000C00000089580910F01813019F0833061
:1004B000B1F40EC060912401623388F46F5F6093E1
:1004C0002401F999FECF80E090E00E94540707C014
:1004D000809117018F3518F48B5F809317010E946C
:1004E0008F002FE58AEE90E0215080409040E1F7A8
:1004F00000C00000089580910F01813019F0833011
:10050000B1F40EC060912401662389F061506093BC
:100510002401F999FECF80E090E00E94540707C0C3
:1005200080911701882319F08550809317010E944C
:100530008F002FE58AEE90E0215080409040E1F757
:1005400000C0000008954A9B0E94FE01339B0E9458
:100550002902349B0E945302359B0E947B028091AA
:100560000F01823049F4339907C0349905C0359999
:1005700003C084E080930F0180910F01843049F41F
:10058000339904C0349902C0359B03C082E0809344
:100590000F010895CF92DF92EF92FF92CF93DF93F6
:1005A0008EE080937C008DEE92E00197F1F700C021
:1005B000000080917A00806480937A0080917A00B4
:1005C00086FDFCCFC0917800D091790010927C001C
:1005D0008DEE92E00197F1F700C0000080917A0063
:1005E000806480937A0080917A0086FDFCCF6091D0
:1005F000780070917900882777FD8095982F0E9468
:1006000021066B017C01BE01882777FD8095982F1C
:100610000E9421069B01AC01C701B6010E9486051C
:100620002DEC3CEC4CE85FE30E94D50620E030E086
:1006300048EC52E40E94D506DF91CF91FF90EF90F5
:10064000DF90CF900895CF92DF92EF92FF92CF93F9
:10065000DF938EE080937C008DEE92E00197F1F7BE
:1006600000C0000080917A00806480937A008091BD
:100670007A0086FDFCCFC0917800D091790088E0A7
:1006800080937C008DEE92E00197F1F700C00000AE
:1006900080917A00806480937A0080917A0086FD50
:1006A000FCCF6091780070917900882777FD809564
:1006B000982F0E9421066B017C01BE01882777FDDF
:1006C0008095982F0E9421069B01AC01C701B601BD
:1006D0000E9486052DEC3CEC4CE85FE30E94D506B9
:1006E00020E030E04AE754E40E94D5060E94EE057F
:1006F000625F7109882777FD8095982F0E942106F7
:1007000029ED3EEC47E85FE30E94D50620E030E0AB
:1007100044E352E40E941D0520E030E040E751E44C
:100720000E941D05DF91CF91FF90EF90DF90CF9059
:100730000895CF93DF93CDB7DEB766970FB6F894E1
:10074000DEBF0FBECDBF8FEF84B986EC87B98BEFCC
:100750008AB915B888E388B984E28BB982E084BD90
:1007600095E095BD94E097BD80936E0084E88093FA
:100770007A0010927C0081EE94E00197F1F700C0BE
:1007800000007894F999FECF80E090E00E944C0739
:1007900080932401833318F088E2809324010E941F
:1007A0008F000E94CA0260931D0170931E01809306
:1007B0001F01909320010E942303609319017093FD
:1007C0001A0180931B0190931C01612C712C1982DA
:1007D0001A821B821C821D821E821F821886198625
:1007E0001A86212C312C412C512C1B861C861D86EF
:1007F0001E861F86188A198A1A8A24C02B843C8474
:100800004D845E846B807C809D819983EE81EA8338
:10081000FF81FB8328852C8389858D839A859E8320
:10082000BF82A88699868A86EF85EB87F889FC8740
:1008300029892D878A898E879B899F87EE89E88BF6
:10084000198B0A8BE12CB12CA12C912C812C1B8AA9
:100850001E8A10E000E026C00E94A3020E94CA0285
:100860009B01AC01BB89AE89F8016B2F7A2F8F2FCA
:10087000902F0E941E056B8B7E8B182F092F0E94D4
:10088000A3020E9423039B01AC01D501F4016B2F4D
:100890007A2D8F2F982D0E941E05B62EA72E982EEA
:1008A000892EE394F0900E01EF14B0F220E030E0D6
:1008B000A901622D732D842D952D0E948205882318
:1008C00009F46BC020E030E0A901E980DA80662DF0
:1008D000772D8E2D9D2D0E948205882309F45DC001
:1008E000F4E0FF9EB0011124882777FD8095982FB2
:1008F0000E9421066B017C017F85688999898A891C
:10090000272F362F492F582FBB89AE89F8016B2F1F
:100910007A2F8F2F902F0E941E05BB85AC85ED8509
:10092000FE852B2F3A2FAF010E941E05222D332D5D
:10093000442D552D0E941E05A70196010E94860593
:1009400060931D0170931E0180931F0190932001FD
:100950007F81688599858A85272F362F492F582FC3
:10096000D501F4016B2F7A2D8F2F982D0E941E0533
:10097000BB81AC815D804E802B2F3A2F452D542DAD
:100980000E941E0559804A80262D372D452D542D55
:100990000E941E05A701960128C06F2D70E080E01F
:1009A00090E00E9421069B01AC01BB89AE89F80151
:1009B0006B2F7A2F8F2F902F0E94860560931D0139
:1009C00070931E0180931F019093200160910E018E
:1009D00070E080E090E00E9421069B01AC01D5010F
:1009E000F4016B2F7A2D8F2F982D0E94860560932E
:1009F000190170931A0180931B0190931C010E94AE
:100A00009F010E948F0080912201813071F4F0904B
:100A1000180121E0F21209C080912101811105C065
:100A200083E00E945300F0922101809121018823EC
:100A300011F0429AE3CE4298E1CE5058BB27AA2744
:100A40000ED075C166D130F06BD120F031F49F3FEC
:100A500011F41EF45BC10EF4E095E7FB51C1E92FE0
:100A600077D180F3BA17620773078407950718F0E8
:100A700071F49EF58FC10EF4E0950B2EBA2FA02DC8
:100A80000B01B90190010C01CA01A0011124FF273B
:100A9000591B99F0593F50F4503E68F11A16F04036
:100AA000A22F232F342F4427585FF3CF4695379535
:100AB0002795A795F0405395C9F77EF41F16BA0BFA
:100AC000620B730B840BBAF09150A1F0FF0FBB1FA8
:100AD000661F771F881FC2F70EC0BA0F621F731FF1
:100AE000841F48F4879577956795B795F7959E3F4E
:100AF00008F0B3CF9395880F08F09927EE0F9795DC
:100B000087950895D9D008F481E008950CD00FC1DD
:100B100007D140F0FED030F021F45F3F19F0F0C073
:100B2000511139C1F3C014D198F39923C9F3552356
:100B3000B1F3951B550BBB27AA27621773078407D0
:100B400038F09F5F5F4F220F331F441FAA1FA9F386
:100B500033D00E2E3AF0E0E830D091505040E69578
:100B6000001CCAF729D0FE2F27D0660F771F881FD9
:100B7000BB1F261737074807AB07B0E809F0BB0BC8
:100B8000802DBF01FF2793585F4F2AF09E3F5105EC
:100B900068F0B6C000C15F3FECF3983EDCF3869589
:100BA00077956795B795F7959F5FC9F7880F911D62
:100BB0009695879597F90895E1E0660F771F881F4E
:100BC000BB1F621773078407BA0720F0621B730B01
:100BD000840BBA0BEE1F88F7E095089504D0689453
:100BE000B111D9C00895BCD088F09F5790F0B92FAB
:100BF0009927B751A0F0D1F0660F771F881F991F72
:100C00001AF0BA95C9F712C0B13081F0C3D0B1E083
:100C10000895C0C0672F782F8827B85F39F0B93F93
:100C2000CCF3869577956795B395D9F73EF4909573
:100C30008095709561957F4F8F4F9F4F0895E894F1
:100C400009C097FB3EF490958095709561957F4F14
:100C50008F4F9F4F9923A9F0F92F96E9BB279395C2
:100C6000F695879577956795B795F111F8CFFAF4D2
:100C7000BB0F11F460FF1BC06F5F7F4F8F4F9F4F03
:100C800016C0882311F096E911C0772321F09EE861
:100C9000872F762F05C0662371F096E8862F70E0C7
:100CA00060E02AF09A95660F771F881FDAF7880FA1
:100CB0009695879597F90895990F0008550FAA0BF7
:100CC000E0E8FEEF16161706E807F907C0F012165F
:100CD0001306E407F50798F0621B730B840B950B62
:100CE00039F40A2661F0232B242B252B21F40895B7
:100CF0000A2609F4A140A6958FEF811D811D089554
:100D000097F99F6780E870E060E008959FEF80ECBE
:100D1000089500240A941616170618060906089561
:100D200000240A9412161306140605060895092EC7
:100D30000394000C11F4882352F0BB0F40F4BF2B36
:100D400011F460FF04C06F5F7F4F8F4F9F4F089576
:100D500057FD9058440F551F59F05F3F71F047956C
:100D6000880F97FB991F61F09F3F79F08795089551
:100D7000121613061406551FF2CF4695F1DF08C070
:100D8000161617061806991FF1CF8695710561058D
:100D900008940895E894BB2766277727CB0197F935
:100DA00008958ADF08F48FEF08950BD0C0CFB1DF2C
:100DB00028F0B6DF18F0952309F0A2CFA7CF1124B1
:100DC000EACFC6DFA0F3959FD1F3950F50E0551FF2
:100DD000629FF001729FBB27F00DB11D639FAA2790
:100DE000F00DB11DAA1F649F6627B00DA11D661FDF
:100DF000829F2227B00DA11D621F739FB00DA11D00
:100E0000621F839FA00D611D221F749F3327A00DB9
:100E1000611D231F849F600D211D822F762F6A2F55
:100E200011249F5750408AF0E1F088234AF0EE0FDA
:100E3000FF1FBB1F661F771F881F91505040A9F7E7
:100E40009E3F510570F05CCFA6CF5F3FECF3983E1C
:100E5000DCF3869577956795B795F795E7959F5F4E
:100E6000C1F7FE2B880F911D9695879597F90895E8
:100E7000AA1BBB1B51E107C0AA1FBB1FA617B707C0
:100E800010F0A61BB70B881F991F5A95A9F78095DC
:100E90009095BC01CD010895F999FECF92BD81BD19
:100EA000F89A992780B50895262FF999FECF1FBA91
:100EB00092BD81BD20BD0FB6F894FA9AF99A0FBE83
:080EC00001960895F894FFCF9C
:100EC8003F065B4F666D7D277F6FB00B1C0064018A
:00000001FF
