:1000000019C033C032C031C030C02FC02EC02DC087
:100010002CC02BC02AC029C028C027C08BC025C037
:1000200024C023C022C021C020C01FC01EC01DC0CC
:100030001CC01BC011241FBECFEFD4E0DEBFCDBF5C
:1000400011E0A0E0B1E0E2E0FBE002C005900D921B
:10005000A031B107D9F721E0A0E1B1E001C01D92C4
:10006000A132B207E1F794D24AC5CACF882331F151
:1000700090E0419AE7EAF1E63197F1F700C000001D
:100080004198E7EAF1E63197F1F700C00000419AA4
:10009000FFE728E331E0F15020403040E1F700C0B5
:1000A000000041984FE7E8E3F1E04150E040F040C4
:1000B000E1F700C000009F5F9813DBCF089588230D
:1000C00091F090E0419AE3EDF0E33197F1F700C051
:1000D00000004198E3EDF0E33197F1F700C0000034
:1000E0009F5F9813EFCF089580910E01823061F0E9
:1000F0008330C1F08130E9F48091200190E0909349
:1001000011018093100108956091190170911A01F5
:1001100080911B0190911C018BD37093110160930E
:10012000100108958091170190E090931101809340
:10013000100108951F920F920FB60F9211242F9362
:100140003F934F935F936F937F938F939F93AF935F
:10015000BF93CF93EF93FF93409110015091110102
:100160009A01ADECBCECA9D49695879596958795A8
:10017000969587959C01220F331F880F991F880F32
:10018000991F880F991F820F931F481B590BFA0163
:10019000E050FF4FC08120911001309111018DD4AA
:1001A000AC015695479556954795569547959A01B2
:1001B00084D49695879596958795969587959C0175
:1001C000220F331F880F991F880F991F880F991FBF
:1001D000820F931F481B590BFA01E050FF4F90818B
:1001E00080911F01882319F08130B9F40CC0589A0E
:1001F0005998C5B980910E01833019F4C068C5B90A
:100200000CC0C5B90AC0599A589880910E01833024
:1002100019F4906895B901C095B980911F018F5F5D
:10022000823019F080931F0102C010921F0180914B
:100230001E01823009F048C0809113019091140191
:10024000A0911501B09116010596A11DB11D8093D5
:10025000130190931401A0931501B09316014091DE
:100260000A0150910B0160910C0170910D018417EE
:100270009507A607B707B1F4109213011092140165
:1002800010921501109216018091170185508093EC
:1002900017012ADF80911701811104C081E080934A
:1002A0001E015B9A809112018F5F803819F0809354
:1002B00012010AC0109212019BB18BB1877F981373
:1002C00002C05B9A01C05B98FF91EF91CF91BF9103
:1002D000AF919F918F917F916F915F914F913F91DE
:1002E0002F910F900FBE0F901F9018955F9908C027
:1002F0005C9A8FE493EC0197F1F700C000005F9ADD
:1003000008955F9B08C05F988FE493EC0197F1F725
:1003100000C000005C98089580911E018130C1F5F5
:10032000809118018823B9F06091200170E080E08D
:1003300090E0AAD22091190130911A0140911B013D
:1003400050911C012FD3882324F0D0DF1092180184
:100350000895D7DF08956091200170E080E090E07B
:1003600093D220E030E040E05FE396D12091190184
:1003700030911A0140911B0150911C0113D3882325
:1003800014F0B4DF0895BDDF81E080931801089573
:10039000B8DF089580911E01811117C08091170167
:1003A000811104C081E080931E010BC082E0809324
:1003B0001E01109213011092140110921501109257
:1003C000160181E07CDE5B9A08C010921E0182E07B
:1003D00076DE10921D0142985B989EDF2FE58AEE33
:1003E00090E0215080409040E1F700C00000089567
:1003F00080910E01823061F0833089F08130B1F458
:1004000082E080930E018BB18F798BB95E9A0EC01A
:1004100083E080930E018BB18F798BB907C081E0A7
:1004200080930E018BB18F798BB95D9A5DDE2FE5DC
:100430008AEE90E0215080409040E1F700C000003B
:10044000089580910E01813019F08330A9F40DC018
:1004500060912001623380F46F5F60932001F9990D
:10046000FECF80E090E03DD307C0809117018F352B
:1004700018F48B5F8093170137DE2FE58AEE90E04A
:10048000215080409040E1F700C000000895809125
:100490000E01813019F08330A9F40DC06091200164
:1004A000662381F0615060932001F999FECF80E0CE
:1004B00090E017D307C080911701882319F0855069
:1004C0008093170111DE2FE58AEE90E021508040E5
:1004D0009040E1F700C0000008954A9B5BDF339B2A
:1004E00087DF349BAEDF359BD2DF0895CF92DF925A
:1004F000EF92FF92CF93DF938EE080937C0081EEAA
:1005000094E00197F1F700C00000EAE7F0E0808195
:1005100080648083808186FDFDCFC0917800D0917A
:10052000790010927C0081EE94E00197F1F700C011
:100530000000EAE7F0E0808180648083808186FDAE
:10054000FDCF6091780070917900882777FD8095C4
:10055000982F9CD16B017C01BE01882777FD809587
:10056000982F94D19B01AC01C701B601F9D02DECB5
:100570003CEC4CE85FE31AD220E030E048EC52E477
:1005800015D2DF91CF91FF90EF90DF90CF9008953B
:100590008FEF84B986EC87B98BEF8AB915B888E3F9
:1005A00088B984E28BB982E084BD95E095BD94E082
:1005B00097BD80936E0084E880937A0010927C004F
:1005C00081EE94E00197F1F700C000007894F9996A
:1005D000FECF80E090E07DD280932001833318F03D
:1005E00088E28093200180DD81DF609319017093A0
:1005F0001A0180931B0190931C0110E0D12CE12C77
:10060000F12C00E0C0E0D1E00EC067DF6FDF9B019E
:10061000AC016D2D7E2D8F2D902F3ED0D62EE72E46
:10062000F82E092F1F5F143680F320E030E048ECED
:1006300052E46D2D7E2D8F2D902F92D06093190155
:1006400070931A0180931B0190931C0165DE4CDDB1
:1006500080911E01813069F480911801813049F444
:1006600080911D01811109C083E000DDD0931D013F
:1006700004C080911D01882339F0429A1C2FDC2E82
:10068000EC2EFC2E0C2FCFCF42981C2FDC2EEC2E04
:10069000FC2E0C2FC8CF5058BB27AA270ED048C11C
:1006A00039D130F03ED120F031F49F3F11F41EF4E7
:1006B0002EC10EF4E095E7FB24C1E92F4AD180F367
:1006C000BA17620773078407950718F071F49EF54F
:1006D00062C10EF4E0950B2EBA2FA02D0B01B901CB
:1006E00090010C01CA01A0011124FF27591B99F0A8
:1006F000593F50F4503E68F11A16F040A22F232FB4
:10070000342F4427585FF3CF469537952795A79503
:10071000F0405395C9F77EF41F16BA0B620B730BAA
:10072000840BBAF09150A1F0FF0FBB1F661F771F1B
:10073000881FC2F70EC0BA0F621F731F841F48F4D0
:10074000879577956795B795F7959E3F08F0B3CF56
:100750009395880F08F09927EE0F97958795089540
:100760000CD0E6C0DED040F0D5D030F021F45F3FB1
:1007700019F0C7C0511110C1CAC0EBD098F399232A
:10078000C9F35523B1F3951B550BBB27AA27621755
:100790007307840738F09F5F5F4F220F331F441F9A
:1007A000AA1FA9F333D00E2E3AF0E0E830D09150D2
:1007B0005040E695001CCAF729D0FE2F27D0660FBF
:1007C000771F881FBB1F261737074807AB07B0E8FE
:1007D00009F0BB0B802DBF01FF2793585F4F2AF014
:1007E0009E3F510568F08DC0D7C05F3FECF3983E47
:1007F000DCF3869577956795B795F7959F5FC9F771
:10080000880F911D9695879597F90895E1E0660FF9
:10081000771F881FBB1F621773078407BA0720F072
:10082000621B730B840BBA0BEE1F88F7E0950895DB
:1008300098D088F09F5790F0B92F9927B751A0F022
:10084000D1F0660F771F881F991F1AF0BA95C9F764
:1008500012C0B13081F09FD0B1E008959CC0672FE5
:10086000782F8827B85F39F0B93FCCF38695779514
:100870006795B395D9F73EF49095809570956195FD
:100880007F4F8F4F9F4F0895E89409C097FB3EF428
:1008900090958095709561957F4F8F4F9F4F9923CD
:1008A000A9F0F92F96E9BB279395F695879577954B
:1008B0006795B795F111F8CFFAF4BB0F11F460FF0B
:1008C0001BC06F5F7F4F8F4F9F4F16C0882311F063
:1008D00096E911C0772321F09EE8872F762F05C077
:1008E000662371F096E8862F70E060E02AF09A9512
:1008F000660F771F881FDAF7880F9695879597F907
:10090000089597F99F6780E870E060E008959FEF91
:1009100080EC089500240A94161617061806090696
:10092000089500240A941216130614060506089565
:10093000092E0394000C11F4882352F0BB0F40F4ED
:10094000BF2B11F460FF04C06F5F7F4F8F4F9F4F2D
:10095000089557FD9058440F551F59F05F3F71F0AF
:100960004795880F97FB991F61F09F3F79F0879516
:100970000895121613061406551FF2CF4695F1DF9F
:1009800008C0161617061806991FF1CF869571052F
:10099000610508940895E894BB2766277727CB0163
:1009A00097F9089566D008F48FEF08950BD0C0CF63
:1009B000B1DF28F0B6DF18F0952309F0A2CFA7CF5A
:1009C0001124EACFC6DFA0F3959FD1F3950F50E035
:1009D000551F629FF001729FBB27F00DB11D639FF1
:1009E000AA27F00DB11DAA1F649F6627B00DA11D97
:1009F000661F829F2227B00DA11D621F739FB00D3D
:100A0000A11D621F839FA00D611D221F749F3327AC
:100A1000A00D611D231F849F600D211D822F762F45
:100A20006A2F11249F5750408AF0E1F088234AF042
:100A3000EE0FFF1FBB1F661F771F881F915050408E
:100A4000A9F79E3F510570F05CCFA6CF5F3FECF356
:100A5000983EDCF3869577956795B795F795E7957A
:100A60009F5FC1F7FE2B880F911D9695879597F98B
:100A70000895990F0008550FAA0BE0E8FEEF16162F
:100A80001706E807F907C0F012161306E407F50782
:100A900098F0621B730B840B950B39F40A2661F0F6
:100AA000232B242B252B21F408950A2609F4A14099
:100AB000A6958FEF811D811D0895A29FB001B39F60
:100AC000C001A39F01D0B29F700D811D1124911D03
:100AD0000895F999FECF92BD81BDF89A992780B506
:100AE0000895262FF999FECF1FBA92BD81BD20BD72
:100AF0000FB6F894FA9AF99A0FBE01960895F894F1
:020B0000FFCF25
:100B02003F065B4F666D7D277F6FCC811B00010026
:00000001FF
